{
  "contractName": "VotingContract",
  "abi": [
    {
      "anonymous": false,
      "inputs": [
        {
          "indexed": true,
          "internalType": "uint256",
          "name": "electionId",
          "type": "uint256"
        },
        {
          "indexed": false,
          "internalType": "string",
          "name": "title",
          "type": "string"
        }
      ],
      "name": "ElectionCreated",
      "type": "event"
    },
    {
      "anonymous": false,
      "inputs": [
        {
          "indexed": true,
          "internalType": "uint256",
          "name": "electionId",
          "type": "uint256"
        },
        {
          "indexed": true,
          "internalType": "uint256",
          "name": "candidateId",
          "type": "uint256"
        },
        {
          "indexed": true,
          "internalType": "address",
          "name": "voter",
          "type": "address"
        }
      ],
      "name": "VoteCast",
      "type": "event"
    },
    {
      "constant": true,
      "inputs": [],
      "name": "electionCount",
      "outputs": [
        {
          "internalType": "uint256",
          "name": "",
          "type": "uint256"
        }
      ],
      "payable": false,
      "stateMutability": "view",
      "type": "function"
    },
    {
      "constant": true,
      "inputs": [
        {
          "internalType": "uint256",
          "name": "",
          "type": "uint256"
        }
      ],
      "name": "elections",
      "outputs": [
        {
          "internalType": "uint256",
          "name": "id",
          "type": "uint256"
        },
        {
          "internalType": "string",
          "name": "title",
          "type": "string"
        },
        {
          "internalType": "bool",
          "name": "exists",
          "type": "bool"
        }
      ],
      "payable": false,
      "stateMutability": "view",
      "type": "function"
    },
    {
      "constant": true,
      "inputs": [
        {
          "internalType": "uint256",
          "name": "",
          "type": "uint256"
        },
        {
          "internalType": "address",
          "name": "",
          "type": "address"
        }
      ],
      "name": "hasVoted",
      "outputs": [
        {
          "internalType": "bool",
          "name": "",
          "type": "bool"
        }
      ],
      "payable": false,
      "stateMutability": "view",
      "type": "function"
    },
    {
      "constant": true,
      "inputs": [
        {
          "internalType": "uint256",
          "name": "",
          "type": "uint256"
        },
        {
          "internalType": "uint256",
          "name": "",
          "type": "uint256"
        }
      ],
      "name": "voteCounts",
      "outputs": [
        {
          "internalType": "uint256",
          "name": "",
          "type": "uint256"
        }
      ],
      "payable": false,
      "stateMutability": "view",
      "type": "function"
    },
    {
      "constant": false,
      "inputs": [
        {
          "internalType": "uint256",
          "name": "_electionId",
          "type": "uint256"
        },
        {
          "internalType": "string",
          "name": "_title",
          "type": "string"
        }
      ],
      "name": "createElection",
      "outputs": [],
      "payable": false,
      "stateMutability": "nonpayable",
      "type": "function"
    },
    {
      "constant": false,
      "inputs": [
        {
          "internalType": "uint256",
          "name": "_electionId",
          "type": "uint256"
        },
        {
          "internalType": "uint256",
          "name": "_candidateId",
          "type": "uint256"
        }
      ],
      "name": "castVote",
      "outputs": [],
      "payable": false,
      "stateMutability": "nonpayable",
      "type": "function"
    },
    {
      "constant": true,
      "inputs": [
        {
          "internalType": "uint256",
          "name": "_electionId",
          "type": "uint256"
        },
        {
          "internalType": "uint256",
          "name": "_candidateId",
          "type": "uint256"
        }
      ],
      "name": "getVoteCount",
      "outputs": [
        {
          "internalType": "uint256",
          "name": "",
          "type": "uint256"
        }
      ],
      "payable": false,
      "stateMutability": "view",
      "type": "function"
    },
    {
      "constant": true,
      "inputs": [
        {
          "internalType": "uint256",
          "name": "_electionId",
          "type": "uint256"
        },
        {
          "internalType": "address",
          "name": "_voter",
          "type": "address"
        }
      ],
      "name": "hasUserVoted",
      "outputs": [
        {
          "internalType": "bool",
          "name": "",
          "type": "bool"
        }
      ],
      "payable": false,
      "stateMutability": "view",
      "type": "function"
    }
  ],
  "bytecode": "0x6080604052600060035534801561001557600080fd5b506109d8806100256000396000f3fe608060405234801561001057600080fd5b50600436106100885760003560e01c8063997d28301161005b578063997d2830146102a9578063d2daa1c2146102c7578063dc296ae114610313578063de2e19a01461037957610088565b80632c0a3f891461008d57806343859632146100c55780635e6fef011461012b5780637da09d94146101e4575b600080fd5b6100c3600480360360408110156100a357600080fd5b8101908080359060200190929190803590602001909291905050506103c5565b005b610111600480360360408110156100db57600080fd5b8101908080359060200190929190803573ffffffffffffffffffffffffffffffffffffffff169060200190929190505050610611565b604051808215151515815260200191505060405180910390f35b6101576004803603602081101561014157600080fd5b8101908080359060200190929190505050610640565b604051808481526020018060200183151515158152602001828103825284818151815260200191508051906020019080838360005b838110156101a757808201518184015260208101905061018c565b50505050905090810190601f1680156101d45780820380516001836020036101000a031916815260200191505b5094505050505060405180910390f35b6102a7600480360360408110156101fa57600080fd5b81019080803590602001909291908035906020019064010000000081111561022157600080fd5b82018360208201111561023357600080fd5b8035906020019184600183028401116401000000008311171561025557600080fd5b91908080601f016020809104026020016040519081016040528093929190818152602001838380828437600081840152601f19601f82011690508083019250505050505050919291929050505061070f565b005b6102b161083c565b6040518082815260200191505060405180910390f35b6102fd600480360360408110156102dd57600080fd5b810190808035906020019092919080359060200190929190505050610842565b6040518082815260200191505060405180910390f35b61035f6004803603604081101561032957600080fd5b8101908080359060200190929190803573ffffffffffffffffffffffffffffffffffffffff169060200190929190505050610867565b604051808215151515815260200191505060405180910390f35b6103af6004803603604081101561038f57600080fd5b8101908080359060200190929190803590602001909291905050506108cf565b6040518082815260200191505060405180910390f35b60008083815260200190815260200160002060020160009054906101000a900460ff1661045a576040517f08c379a00000000000000000000000000000000000000000000000000000000081526004018080602001828103825260178152602001807f456c656374696f6e20646f6573206e6f7420657869737400000000000000000081525060200191505060405180910390fd5b6002600083815260200190815260200160002060003373ffffffffffffffffffffffffffffffffffffffff1673ffffffffffffffffffffffffffffffffffffffff16815260200190815260200160002060009054906101000a900460ff161561052b576040517f08c379a000000000000000000000000000000000000000000000000000000000815260040180806020018281038252600d8152602001807f416c726561647920766f7465640000000000000000000000000000000000000081525060200191505060405180910390fd5b60016002600084815260200190815260200160002060003373ffffffffffffffffffffffffffffffffffffffff1673ffffffffffffffffffffffffffffffffffffffff16815260200190815260200160002060006101000a81548160ff021916908315150217905550600160008381526020019081526020016000206000828152602001908152602001600020600081548092919060010191905055503373ffffffffffffffffffffffffffffffffffffffff1681837f7fe1d4e6b34e228b5dc059fcdc037c71b216fb2417f47c171e505144a5e4f5fc60405160405180910390a45050565b60026020528160005260406000206020528060005260406000206000915091509054906101000a900460ff1681565b6000602052806000526040600020600091509050806000015490806001018054600181600116156101000203166002900480601f0160208091040260200160405190810160405280929190818152602001828054600181600116156101000203166002900480156106f25780601f106106c7576101008083540402835291602001916106f2565b820191906000526020600020905b8154815290600101906020018083116106d557829003601f168201915b5050505050908060020160009054906101000a900460ff16905083565b6040518060600160405280838152602001828152602001600115158152506000808481526020019081526020016000206000820151816000015560208201518160010190805190602001906107659291906108fe565b5060408201518160020160006101000a81548160ff021916908315150217905550905050600360008154809291906001019190505550817f52be7c4e77b4de76b7607d621492061fe13b58597e72dfb5e51ab8f6187ed141826040518080602001828103825283818151815260200191508051906020019080838360005b838110156107fe5780820151818401526020810190506107e3565b50505050905090810190601f16801561082b5780820380516001836020036101000a031916815260200191505b509250505060405180910390a25050565b60035481565b6001602052816000526040600020602052806000526040600020600091509150505481565b60006002600084815260200190815260200160002060008373ffffffffffffffffffffffffffffffffffffffff1673ffffffffffffffffffffffffffffffffffffffff16815260200190815260200160002060009054906101000a900460ff16905092915050565b600060016000848152602001908152602001600020600083815260200190815260200160002054905092915050565b828054600181600116156101000203166002900490600052602060002090601f016020900481019282601f1061093f57805160ff191683800117855561096d565b8280016001018555821561096d579182015b8281111561096c578251825591602001919060010190610951565b5b50905061097a919061097e565b5090565b6109a091905b8082111561099c576000816000905550600101610984565b5090565b9056fea265627a7a72315820f764108a5a7fbe8a75b4442816a2a8cc35c6edb153dde497748dbf668729fa5364736f6c63430005100032",
  "source": "// SPDX-License-Identifier: MIT\npragma solidity ^0.5.16;\n\ncontract VotingContract {\n    struct Election {\n        uint256 id;\n        string title;\n        bool exists;\n    }\n    \n    mapping(uint256 => Election) public elections;\n    mapping(uint256 => mapping(uint256 => uint256)) public voteCounts;\n    mapping(uint256 => mapping(address => bool)) public hasVoted;\n    \n    uint256 public electionCount = 0;\n    \n    event ElectionCreated(uint256 indexed electionId, string title);\n    event VoteCast(uint256 indexed electionId, uint256 indexed candidateId, address indexed voter);\n    \n    function createElection(uint256 _electionId, string memory _title) public {\n        elections[_electionId] = Election(_electionId, _title, true);\n        electionCount++;\n        emit ElectionCreated(_electionId, _title);\n    }\n    \n    function castVote(uint256 _electionId, uint256 _candidateId) public {\n        require(elections[_electionId].exists, \"Election does not exist\");\n        require(!hasVoted[_electionId][msg.sender], \"Already voted\");\n        \n        hasVoted[_electionId][msg.sender] = true;\n        voteCounts[_electionId][_candidateId]++;\n        \n        emit VoteCast(_electionId, _candidateId, msg.sender);\n    }\n    \n    function getVoteCount(uint256 _electionId, uint256 _candidateId) public view returns (uint256) {\n        return voteCounts[_electionId][_candidateId];\n    }\n    \n    function hasUserVoted(uint256 _electionId, address _voter) public view returns (bool) {\n        return hasVoted[_electionId][_voter];\n    }\n}",
  "sourcePath": "/Users/ganesh/python/Ethereum-Blockchain-based-Electronic-Voting-System/VoteSecure/contracts/VotingContract.sol",
  "compiler": {
    "name": "solc",
    "version": "0.5.16+commit.9c3226ce.Emscripten.clang"
  },
  "schemaVersion": "3.4.16",
  "updatedAt": "2025-11-01T08:40:42.815Z",
  "networkType": "ethereum",
  "devdoc": {
    "methods": {}
  },
  "userdoc": {
    "methods": {}
  }
}